:100000000C942A000C94BC000C9447000C944700FC
:100010000C9447000C9447000C9447000C94470044
:100020000C9447000C9447000C9492000C944700E9
:100030000C9447000C9447000C9447000C94470024
:100040000C9447000C9447000C9447000C94470014
:100050000C94470011241FBECFE5D8E0DEBFCDBF12
:1000600010E0A0E6B0E0EAE8F1E102C005900D92F0
:10007000A638B107D9F710E0A6E8B0E001C01D929C
:10008000AD39B107E1F70E9449000C94C4080C9403
:1000900000001F930E946E0081E00E94B10360E0A7
:1000A00081E00E94060380E690E00E942E0361E05A
:1000B00080E00E94A20381E790E00E942E0381E08D
:1000C0000E94A002182F61E08AE00E94A20363E070
:1000D00070E0812F99270E943E03F1CF10928A0091
:1000E00010928B0010928C0010928D0010929C0048
:1000F00010929B0010928E00109288001092860041
:1001000083B7896083BF89B7826089BF80EA8CBF6B
:1001100085B7826085BF8BB780648BBF8FB78068DF
:100120008FBF08951F920F920FB60F9211248F93D5
:100130009F938091980090919900019690939900D7
:10014000809398009F918F910F900FBE0F901F90FA
:10015000189510928A0010928B0010928C001092C9
:100160008D0010928E0085B78C7F85BF85B7826029
:1001700085BF1092880008951F920F920FB60F92BC
:100180001124DF92EF92FF920F931F932F933F93CF
:100190004F935F936F937F938F939F93AF93BF938F
:1001A000CF93DF93EF93FF938BB78F7B8BBF7894C5
:1001B00080919B0090919C00892B09F0A9C1C0916E
:1001C0009800D0919900109299001092980012BE58
:1001D000D0908E0081E0D81609F440C0D81660F0A7
:1001E00083E0D81609F494C084E0D81609F418C145
:1001F0008BB780648BBF8CC180918800882309F401
:10020000D6C0BE01882777FD8095982F0E94D30520
:100210007B018C01D7FD4FC120E030E84AE454E473
:10022000C801B7010E94670518160CF06EC020E0E7
:1002300030E847E754E4C801B7010E949D058823D0
:100240000CF063C081E080938E0085B78C7F85BF02
:1002500085B7826085BF10928800CACFBE0188270B
:1002600077FD8095982F0E94D3057B018C01D7FDE7
:1002700019C120E030E84AEC53E4C801B7010E94FC
:10028000670518165CF420E030E847EF53E4C80136
:10029000B7010E949D0588230CF49EC0C95CD04024
:1002A000AC9798F580918600882309F487C08091E7
:1002B0007C00873009F4A2C080917C0020917B00F3
:1002C000992787FD90950196332727FD3095821752
:1002D000930709F498C080917C00873009F4F4C03A
:1002E00080917C008F5F80937C00E0917C00FF27F1
:1002F000E7FDF09580918F00E057FF4F808380915C
:100300007B008F3F11F410927B000E94A90070CFF8
:1003100080918800882309F06CC0CE018A974097AD
:1003200080F1BE01882777FD8095982F0E94D30524
:100330007B018C01D7FDCBC02AE939E148E153E4C8
:10034000C801B7010E9467051816FCF626E636EECE
:1003500049E353E4C801B7010E949D058823ACF628
:10036000E0918700FF27E657FF4F208130918900F9
:1003700081E090E002C0880F991F3A95E2F7282BA0
:100380002083809189008F5F80938900809189000C
:10039000883069F410928900809187008F5F809384
:1003A000870080918700843011F480938E0085B798
:1003B000836085BF81E0809388001ACF80919A0086
:1003C0008F5F80939A0080919A00843009F09DCFCE
:1003D00081E08093860099CF83E080938E00109215
:1003E00089001092870085B7836085BFD09288000E
:1003F000FFCEE397629708F428CF87CF80917B00E8
:10040000882309F059CF80917B008F5F80937B0018
:1004100080917B00883009F05ECF10927B005BCF2B
:1004200080918800882309F4E3CE90918C0080911C
:100430008D008095981709F0DBCE80917C00873085
:1004400009F44EC080917C0020917B00992787FDA4
:1004500090950196332727FD30958217930709F46D
:1004600044C080917C00873009F44FC080917C00AB
:100470008F5F80937C00E0917C00FF27E7FDF09583
:1004800080918C00E057FF4F808380918C00809397
:100490008F0080917B008F3FA9F11092860010920F
:1004A0009A0033CF20E030E040E857E40E943A055C
:1004B0007B018C01DECE20E030E040E857E40E9472
:1004C0003A057B018C01A8CE10927C000ECF20E073
:1004D00030E040E857E40E943A057B018C012CCFC4
:1004E00080917B00882309F0ADCF80917B008F5FE6
:1004F00080937B0080917B00883009F0B2CF10920E
:100500007B00AFCF10927B00C8CF10927C00B3CF9E
:10051000FF91EF91DF91CF91BF91AF919F918F911B
:100520007F916F915F914F913F912F911F910F910B
:10053000FF90EF90DF900F900FBE0F901F901895D7
:100540008823F1F480917B008F3F91F1E0917B0053
:10055000FF27E7FDF095E057FF4FE08190917B008A
:1005600080917C009817A9F080917B008730D9F0AA
:1005700080917B008F5F80937B008E2F9927089559
:1005800080917B008F3F11F780917B008F3FC1F3FB
:10059000DDCF8FEF80937C0080917C0080937B0087
:1005A0008E2F9927089510927B008E2F99270895FA
:1005B0008FEF90E0089587B3807F87BBAE9AAF98A6
:1005C00082E08A95F1F722E035E0C49A822F8A957D
:1005D000F1F786B38295807F922F9A95F1F7C498B0
:1005E000932F9A95F1F7C49A922F9A95F1F796B3B3
:1005F000922F9A95F1F7C498932F9A95F1F787FD6A
:10060000E4CFAE9887B38F6087BB0895282F662309
:1006100011F4AF9801C0AF9A82E08A95F1F7C49ABD
:1006200088B3807F922F92959F70892B88BB95E02D
:10063000892F8A95F1F7C498892F8A95F1F7C49A82
:1006400088B3807F2F70822B88BB892F8A95F1F722
:10065000C4989A95F1F70E94DB020895CF93DF9337
:10066000EC018881882339F061E00E94060321961D
:1006700088818823C9F7DF91CF910895EF92FF9287
:100680000F931F93CF93DF93CDB7DEB725970FB6A8
:10069000F894DEBF0FBECDBF9C018B017E01089494
:1006A000E11CF11C85E0F70111928A95E9F721150B
:1006B000310589F0FE013596C9016AE070E00E94BB
:1006C000660880833197C9016AE070E00E9466087D
:1006D0009B01672B89F7FFEF0F3F1F07B9F085E0FC
:1006E00090E0801B910B85309105FCF48C01E00EAD
:1006F000F11EF70181917F0161E0805D0E94060398
:100700000F5F1F4F05301105A4F30FC089818823A7
:1007100049F4F701818131968823E1F3CF018E19E5
:100720009F09E1CF00E010E0E2CF25960FB6F894E4
:10073000DEBF0FBECDBFDF91CF911F910F91FF9014
:10074000EF900895883230F4662329F460E08068E1
:100750000E9406030895806460E080680E9406039A
:10076000F9CF1F93182F80E090E00197F1F787B33E
:100770008F6087BBBC9AA79AA69A88B3807F88BBF4
:10078000C498AE98AF9881E08A95F1F7C49AC19A5F
:1007900085E0982F9A95F1F7C4988A95F1F70E9411
:1007A000DB0260E0812F8C600E94060360E088E23B
:1007B0000E9406031F910895A0E0B0E0E2EEF3E08E
:1007C0000C949108FC016A019081923008F41BC1DD
:1007D000DB018C91823080F0943061F4843009F038
:1007E00012C19181EB018981981709F40CC1EDE7E1
:1007F000F0E009C1843011F4FB0105C1823091F4AD
:10080000923009F000C1EA01DF0188E00D90099201
:100810008150E1F78181FB0191818923E601898380
:10082000F601F1C0923041F362807380EB018A805F
:100830009B80E480F580068117812C813D814E816B
:100840005F815301A818B908C501B7FCABC08097F8
:100850000CF457C0861497040CF4BEC03401EE2487
:10086000FF2487019181FB018181981709F4A6C0BB
:10087000992309F49CC02E193F09400B510B57FDD9
:10088000B0C0E60119827B826A82F6012483358337
:1008900046835783E6012C813D814E815F8179013A
:1008A0008A01DA01C9010197A109B1098F5F9F4F40
:1008B000AF4FBF43F8F4E6016A817B81A80197013D
:1008C000220F331F441F551F6150704079018A0168
:1008D000DA01C9010197A109B1098F5F9F4FAF4F9D
:1008E000BF4360F3E6017B836A83F601248335838B
:1008F0004683578383E0D6018C9357FD39C0F601B8
:1009000082C086149704B4F4C0E0D0E0DA01C901D3
:1009100081709070A070B070569547953795279567
:10092000282B392B4A2B5B2B2196AC16BD0671F771
:100930008A0C9B1C681479040CF094CFC0E0D0E0C2
:100940005401A618B708D801C70181709070A07033
:10095000B07016950795F794E794E82AF92A0A2BC0
:100960001B2B2196AC16BD0671F76A0C7B1C7ACF47
:10097000DA01C901B695A7959795879521703070D2
:1009800040705070282B392B4A2B5B2BE6012C83AF
:100990003D834E835F838A819B8101969B838A83FB
:1009A000F60131C0882799278A199B0950CFE21A8E
:1009B000F30A040B150BA801970161CFE601998397
:1009C0007B826A822E0D3F1D401F511FF60124833A
:1009D0003583468357838ECF20E030E040E050E0FF
:1009E00041CF81E0E60189837B826A825095409500
:1009F000309521953F4F4F4F5F4FF601248335834C
:100A00004683578347CFCF01EEE0CDB7DEB70C94D6
:100A1000AD08A0E2B0E0EFE0F5E00C94990869833E
:100A20007A838B839C832D833E834F83588789E110
:100A3000E82EF12CEC0EFD1EB701CE0101960E94AE
:100A40005E078E010F5E1F4FB801CE0105960E9412
:100A50005E078A8991E089278A8BAE01475F5F4FE5
:100A6000B801C7010E94DC030E943C06E6E0A096A4
:100A70000C94B508A0E2B0E0E0E4F5E00C9499082D
:100A800069837A838B839C832D833E834F8358872E
:100A900099E1E92EF12CEC0EFD1EB701CE01019675
:100AA0000E945E078E010F5E1F4FB801CE010596B2
:100AB0000E945E07AE01475F5F4FB801C7010E9409
:100AC000DC030E943C06E6E0A0960C94B508A8E181
:100AD000B0E0EDE6F5E00C94990869837A838B83A6
:100AE0009C832D833E834F83588781E1E82EF12C30
:100AF000EC0EFD1EB701CE0101960E945E078E012D
:100B0000075F1F4FB801CE0105960E945E078989D5
:100B1000823018F42FEF3FEF0BC089858230D0F37D
:100B2000B801C7010E94FD07282F332727FD309504
:100B3000C901E6E068960C94B508A8E1B0E0E3EAE4
:100B4000F5E00C94990869837A838B839C832D83C9
:100B50003E834F83588781E1E82EF12CEC0EFD1E79
:100B6000B701CE0101960E945E078E01075F1F4FFD
:100B7000B801CE0105960E945E078989823018F07F
:100B80008985823018F421E030E008C0B801C7013F
:100B90000E94FD07282F332727FD3095C901E6E085
:100BA00068960C94B508A8E0B0E0E9EDF5E00C9487
:100BB0009C089B01AC0183E089831A8257FD51C0D8
:100BC000211531054105510539F482E08983CE01B3
:100BD00001960E943C064CC0EEE1F0E0FC83EB8302
:100BE0008A818823C9F1203010E0310710E04107E5
:100BF00010E85107C9F188279927DC01821B930B64
:100C0000A40BB50B8D839E83AF83B8872D813E8166
:100C10004F815885203080E0380780E0480780E425
:100C20005807A8F6EB81FC81DA01C901880F991FEA
:100C3000AA1FBB1F31979C01AD01803010E09107C6
:100C400010E0A10710E4B10778F3FC83EB838D83F8
:100C50009E83AF83B887BBCF2D833E834F83588756
:100C6000D5CF81E08A83ACCF60E070E080E09FEC7C
:100C7000E3E028960C94B8084F925F926F927F92AF
:100C80008F929F92AF92BF92DF92EF92FF920F935B
:100C90001F9320E030E040E050E0FC01E480F5806C
:100CA00006811781D1808081823038F4D801C70154
:100CB000A061AF77B0706FEFD9C0843009F46EC017
:100CC000823009F471C0E114F1040105110509F441
:100CD0006BC0828193816FEF823896070CF06AC0F7
:100CE00062E87FEF681B790B6A3171050CF080C0F8
:100CF00047015801062E04C0B694A7949794879490
:100D00000A94D2F744245524320181E090E0A0E017
:100D1000B0E004C0880F991FAA1FBB1F6A95D2F7C5
:100D20000197A109B109E822F9220A231B23E11442
:100D3000F1040105110529F061E0462E512C612CCA
:100D4000712C85017401E428F52806291729D8019A
:100D5000C7018F779070A070B07080349105A105A5
:100D6000B10509F457C0D801C701CF96A11DB11D27
:100D700060E070E08030E0E09E07E0E0AE07E0E495
:100D8000BE0710F061E070E027E0B695A795979553
:100D900087952A95D1F7AF77B07068C080E090E072
:100DA000A0E0B0E06FEF62C080E090E0A0E0B0E0D3
:100DB00060E05CC0803891058CF7BC0161587F4FC2
:100DC000D801C7018F779070A070B0708034910502
:100DD000A105B105A1F08FE390E0A0E0B0E0E80E3E
:100DE000F91E0A1F1B1F17FD28C0D801C701CCCF51
:100DF00060E070E080E090E0A0E0B0E0CCCFE7FE03
:100E0000F2CF80E490E0A0E0B0E0E80EF91E0A1F07
:100E10001B1FE9CFE7FC18C080E090E060E0E61619
:100E200060E0F60660E0060760E4160710F081E077
:100E300090E0BC01D801C701A7CF16950795F7949C
:100E4000E7946F5F7F4FD1CFD801C701805C9F4F80
:100E5000AF4FBF4F60E070E08030E0E09E07E0E021
:100E6000AE07E0E4BE0708F48FCF8CCF282F392FD0
:100E70009A2F9F77842F8078892B962F9795992783
:100E800097958F77482F492B6695852F8078862BED
:100E9000D794DD24D7948F77582F5D29CA01B901E3
:100EA0001F910F91FF90EF90DF90BF90AF909F90B8
:100EB0008F907F906F905F904F900895FC01DB01C1
:100EC000208131819281492F4F7750E0991F9927D6
:100ED000991F8381682F660F692B881F8827881FB9
:100EE000FD018183662309F049C0211531054105C3
:100EF000510509F470C082E89FEFFD01938382835E
:100F0000220F331F441F551F220F331F441F551F2D
:100F1000220F331F441F551F220F331F441F551F1D
:100F2000220F331F441F551F220F331F441F551F0D
:100F3000220F331F441F551F83E08C932030F0E0B5
:100F40003F07F0E04F07F0E45F0790F482E89FEF7F
:100F5000220F331F441F551F0197203060E03607D2
:100F600060E0460760E4560798F3FD0193838283AF
:100F7000FD01248335834683578308956F3F71F1C4
:100F8000862F99278F579040FD019383828383E0BA
:100F90008C93220F331F441F551F220F331F441FF2
:100FA000551F220F331F441F551F220F331F441F8D
:100FB000551F220F331F441F551F220F331F441F7D
:100FC000551F220F331F441F551F50642483358340
:100FD00046835783089582E08C9308952115310547
:100FE0004105510519F484E08C93089544FD02C035
:100FF0001C92BECF81E08C93BBCFEF92FF920F93F8
:101000001F93CF93DF93FC01DB018081823050F08E
:101010009C91923038F0843041F49430B1F0818169
:10102000882381F461E070E04BC09430E9F18230B4
:10103000A1F09230A1F36181ED018981681791F0EF
:10104000662381F36FEF7FEF3BC0EB018981682F4F
:1010500077278181681B710933C0923059F560E0B0
:1010600070E02EC022813381ED018A819B8182173D
:10107000930734F3281739079CF0E480F580068144
:101080001781FD0124813581468157812E153F0549
:1010900040075107A8F2E216F30604071507F8F611
:1010A000662309F0BFCFCECFFB018181882309F0F1
:1010B000B9CFC8CFEB018981882309F0B3CFC2CF64
:1010C000CB01E6E0CDB7DEB70C94B50897FB092E4F
:1010D00007260AD077FD04D00CD006D000201AF4E1
:1010E000709561957F4F0895F6F7909581959F4F84
:1010F0000895AA1BBB1B51E107C0AA1FBB1FA6175F
:10110000B70710F0A61BB70B881F991F5A95A9F7B0
:1011100080959095BC01CD0108952F923F924F92FA
:101120005F926F927F928F929F92AF92BF92CF9277
:10113000DF92EF92FF920F931F93CF93DF93CDB780
:10114000DEB7CA1BDB0B0FB6F894DEBF0FBECDBFF8
:1011500009942A88398848885F846E847D848C84C9
:101160009B84AA84B984C884DF80EE80FD800C81D2
:101170001B81AA81B981CE0FD11D0FB6F894DEBFB5
:0A1180000FBECDBFED010895FFCFB3
:10118A0049522052656D6F74654465636F64657278
:10119A00004B657920436F64653A00FFFF00000049
:0611AA000000000000003F
:00000001FF
