:1000000012C02CC098C02AC029C028C06AC026C00F
:1000100025C024C023C022C021C020C01FC01EC0D4
:100020001DC01CC01BC011241FBECFE5D4E0DEBF25
:10003000CDBF10E0A0E6B0E0E8EEF0E102C0059030
:100040000D92A638B107D9F710E0A6E8B0E001C0DC
:100050001D92AD39B107E1F702D045C8D1CF1F934A
:100060001AD081E04CD360E081E0A5D280E690E038
:10007000C9D261E080E036D381E790E0C3D281E06D
:1000800034D2182F61E08AE02DD363E070E0812F35
:100090009927C7D2F4CF10928A0010928B00109249
:1000A0008C0010928D0010929C0010929B00109278
:1000B0008E0010928800109286008EB589608EBDE9
:1000C00089B7806189BF80EA90E09BBD8ABD85B712
:1000D000886085BF8BB780688BBF8FB780688FBF04
:1000E00008951F920F920FB60F9211248F939F9332
:1000F0008091980090919900019690939900809337
:1001000098009F918F910F900FBE0F901F901895A0
:1001100010928A0010928B0010928C0010928D0029
:1001200010928E0085B7837F85BF85B7886085BFB5
:100130001092880008951F920F920FB60F9211240B
:10014000DF92EF92FF920F931F932F933F934F9362
:100150005F936F937F938F939F93AF93BF93CF934F
:10016000DF93EF93FF938BB78F778BBF789480915A
:100170009B0090919C00892B09F09FC1C091980031
:10018000D0919900109299001092980012BED090D0
:100190008E0081E0D81609F43DC0D81660F083E0E7
:1001A000D81609F48DC084E0D81609F410C18BB7B5
:1001B00080688BBF82C180918800882309F4CCC0FD
:1001C000BE01882777FD8095982FA0D47B018C01F4
:1001D000D7FD48C120E030E84AE454E4C801B70143
:1001E00033D418160CF06AC020E030E847E754E436
:1001F000C801B7015AD488230CF060C081E0809315
:100200008E0085B7837F85BF85B7886085BF1092D4
:100210008800CDCFBE01882777FD8095982F76D4B2
:100220007B018C01D7FD16C120E030E84AEC53E495
:10023000C801B70109D4181654F420E030E847EF9C
:1002400053E4C801B70131D488230CF49BC0C95CC6
:10025000D040AC9798F580918600882309F483C03C
:1002600080917C00873009F4A0C080917C002091AF
:100270007B00992787FD90950196332727FD3095C0
:100280008217930709F496C080917C00873009F4A7
:10029000F1C080917C008F5F80937C00E0917C00B6
:1002A000FF27E7FDF09580918F00E057FF4F808397
:1002B00080917B008F3F11F410927B0029DF77CF74
:1002C00080918800882309F06AC0CE018A97409700
:1002D00068F1BE01882777FD8095982F17D47B01A0
:1002E0008C01D7FDCAC02AE939E148E153E4C801CD
:1002F000B701AAD3181614F726E636EE49E353E4FD
:10030000C801B701D2D38823CCF6E0918700FF273C
:10031000E657FF4F20813091890081E090E002C0D4
:10032000880F991F3A95E2F7282B20838091890046
:100330008F5F8093890080918900883069F41092E2
:100340008900809187008F5F80938700809187006C
:10035000843011F480938E0085B78C6085BF81E076
:100360008093880024CF80919A008F5F80939A00B9
:1003700080919A00843009F0A1CF81E080938600BB
:10038000C7DE15CF83E080938E0010928900109213
:10039000870085B78C6085BFD092880008CFE3972F
:1003A000629708F42ECFB4DE02CF80917B008823C1
:1003B00009F05BCF80917B008F5F80937B00809101
:1003C0007B00883009F060CF10927B005DCF809178
:1003D0008800882309F4EBCE90918C0080918D00E9
:1003E0008095981709F0E3CE80917C00873009F45E
:1003F0004CC080917C0020917B00992787FD9095CF
:100400000196332727FD30958217930709F442C0E0
:1004100080917C00873009F44DC080917C008F5F13
:1004200080937C00E0917C00FF27E7FDF0958091B0
:100430008C00E057FF4F808380918C0080938F0069
:1004400080917B008F3F99F11092860010929A0064
:100450005FDEADCE20E030E040E857E4CED27B0155
:100460008C01E2CE20E030E040E857E4C6D27B01C8
:100470008C01B0CE10927C0011CF20E030E040E83B
:1004800057E4BBD27B018C012ECF80917B00882367
:1004900009F0AFCF80917B008F5F80937B008091CC
:1004A0007B00883009F0B4CF10927B00B1CF10925E
:1004B0007B00CACF10927C00B5CFFF91EF91DF9106
:1004C000CF91BF91AF919F918F917F916F915F91EC
:1004D0004F913F912F911F910F91FF90EF90DF90DF
:1004E0000F900FBE0F901F9018958823F1F4809104
:1004F0007B008F3F91F1E0917B00FF27E7FDF095B6
:10050000E057FF4FE08190917B0080917C0098172D
:10051000A9F080917B008730D9F080917B008F5FBC
:1005200080937B008E2F9927089580917B008F3FC9
:1005300011F780917B008F3FC1F3DDCF8FEF809368
:100540007C0080917C0080937B008E2F99270895FA
:1005500010927B008E2F992708958FEF90E00895D9
:1005600084B3807F84BBC09AC19882E08A95F1F7FA
:1005700022E035E0C29A822F8A95F1F783B3829503
:10058000807F922F9A95F1F7C298932F9A95F1F761
:10059000C29A922F9A95F1F793B3922F9A95F1F709
:1005A000C298932F9A95F1F787FDE4CFC09884B352
:1005B0008F6084BB0895282F662311F4C19801C071
:1005C000C19A82E08A95F1F7C29A85B3807F922F13
:1005D00092959F70892B85BB95E0892F8A95F1F7BD
:1005E000C298892F8A95F1F7C29A85B3807F2F70C0
:1005F000822B85BB892F8A95F1F7C2989A95F1F7DE
:10060000AFDF0895CF93DF93EC018881882331F029
:1006100061E0D1DF219688818823D1F7DF91CF91E6
:100620000895EF92FF920F931F93CF93DF93CDB76F
:10063000DEB725970FB6F894DEBF0FBECDBF9C0185
:100640008B017E010894E11CF11C85E0F7011192F9
:100650008A95E9F72115310579F0FE013596C90132
:100660006AE070E0E2D480833197C9016AE070E00B
:10067000DCD49B01672B99F7FFEF0F3F1F07B1F009
:1006800085E090E0801B910B85309105F4F48C019E
:10069000E00EF11EF70181917F0161E0805D8BDF4B
:1006A0000F5F1F4F05301105ACF30FC08981882300
:1006B00049F4F701818131968823E1F3CF018E1946
:1006C0009F09E2CF00E010E0E3CF25960FB6F89443
:1006D000DEBF0FBECDBFDF91CF911F910F91FF9075
:1006E000EF900895883228F4662321F460E0806852
:1006F00062DF0895806460E080685DDFFACF1F9359
:10070000182F80E090E00197F1F784B38F6084BBED
:10071000BA9AB99AB89A85B3807F85BBC298C098B7
:10072000C19881E08A95F1F7C29AA99A85E0982F3D
:100730009A95F1F7C2988A95F1F712DF60E0812F60
:100740008C6039DF60E088E236DF1F910895A0E019
:10075000B0E0ECEAF3E094C4FC016A0190819230CD
:1007600008F41BC1DB018C91823080F0943061F47D
:10077000843009F012C19181EB018981981709F445
:100780000CC1EDE7F0E009C1843011F4FB0105C1B3
:10079000823091F4923009F000C1EA01DF0188E073
:1007A0000D9009928150E1F78181FB0191818923AC
:1007B000E6018983F601F1C0923041F362807380D3
:1007C000EB018A809B80E480F580068117812C8173
:1007D0003D814E815F815301A818B908C501B7FC5E
:1007E000ABC080970CF457C0861497040CF4BEC0BD
:1007F0003401EE24FF2487019181FB018181981748
:1008000009F4A6C0992309F49CC02E193F09400B96
:10081000510B57FDB0C0E60119827B826A82F60156
:100820002483358346835783E6012C813D814E81A5
:100830005F8179018A01DA01C9010197A109B10932
:100840008F5F9F4FAF4FBF43F8F4E6016A817B8112
:10085000A8019701220F331F441F551F615070409C
:1008600079018A01DA01C9010197A109B1098F5FF4
:100870009F4FAF4FBF4360F3E6017B836A83F6016E
:10088000248335834683578383E0D6018C9357FDB9
:1008900039C0F60182C086149704B4F4C0E0D0E0F9
:1008A000DA01C90181709070A070B07056954795BB
:1008B00037952795282B392B4A2B5B2B2196AC1685
:1008C000BD0671F78A0C9B1C681479040CF094CF58
:1008D000C0E0D0E05401A618B708D801C701817064
:1008E0009070A070B07016950795F794E794E82A79
:1008F000F92A0A2B1B2B2196AC16BD0671F76A0C40
:100900007B1C7ACFDA01C901B695A7959795879593
:100910002170307040705070282B392B4A2B5B2B84
:10092000E6012C833D834E835F838A819B81019600
:100930009B838A83F60131C0882799278A199B09EE
:1009400050CFE21AF30A040B150BA801970161CFEF
:10095000E60199837B826A822E0D3F1D401F511F45
:10096000F60124833583468357838ECF20E030E021
:1009700040E050E041CF81E0E60189837B826A82DA
:1009800050954095309521953F4F4F4F5F4FF60161
:10099000248335834683578347CFCF01EEE0CDB71D
:1009A000DEB78AC3A0E2B0E0E7EDF4E071C369838B
:1009B0007A838B839C832D833E834F83588789E181
:1009C000E82EF12CEC0EFD1EB701CE01019626D2C9
:1009D0008E010F5E1F4FB801CE0105961FD28A8986
:1009E00091E089278A8BAE01475F5F4FB801C7014D
:1009F000AEDEF2D0E6E0A09667C3A0E2B0E0E2E0AF
:100A0000F5E046C369837A838B839C832D833E8381
:100A10004F83588799E1E92EF12CEC0EFD1EB701AA
:100A2000CE010196FBD18E010F5E1F4FB801CE01A2
:100A30000596F4D1AE01475F5F4FB801C70187DE6D
:100A4000CBD0E6E0A09640C3A8E1B0E0E9E2F5E053
:100A50001FC369837A838B839C832D833E834F835B
:100A6000588781E1E82EF12CEC0EFD1EB701CE0176
:100A70000196D4D18E01075F1F4FB801CE010596B4
:100A8000CDD18989823018F42FEF3FEF0AC08985D4
:100A90008230D0F3B801C70160D2282F332727FD59
:100AA0003095C901E6E068960FC3A8E1B0E0EAE539
:100AB000F5E0EEC269837A838B839C832D833E832A
:100AC0004F83588781E1E82EF12CEC0EFD1EB70113
:100AD000CE010196A3D18E01075F1F4FB801CE0151
:100AE00005969CD18989823018F08985823018F466
:100AF00021E030E007C0B801C7012FD2282F3327EB
:100B000027FD3095C901E6E06896DEC2A8E0B0E0B6
:100B1000EBE8F5E0C0C29B01AC0183E089831A8257
:100B200057FD50C0211531054105510531F482E0D2
:100B30008983CE01019650D04CC0EEE1F0E0FC83F9
:100B4000EB838A818823C9F1203010E0310710E05F
:100B5000410710E85107C9F188279927DC01821B5A
:100B6000930BA40BB50B8D839E83AF83B8872D8128
:100B70003E814F815885203080E0380780E048076B
:100B800080E45807B0F6EB81FC81DA01C901880FD7
:100B9000991FAA1FBB1F31979C01AD01803010E047
:100BA000910710E0A10710E4B10778F3FC83EB8311
:100BB0008D839E83AF83B887BCCF2D833E834F83C5
:100BC0005887D5CF81E08A83ADCF60E070E080E0C8
:100BD0009FECE3E028967BC24F925F926F927F92E8
:100BE0008F929F92AF92BF92DF92EF92FF920F93FC
:100BF0001F9320E030E040E050E0FC01E480F5800D
:100C000006811781D1808081823038F4D801C701F4
:100C1000A061AF77B0706FEFD9C0843009F46EC0B7
:100C2000823009F471C0E114F1040105110509F4E1
:100C30006BC0828193816FEF823896070CF06AC097
:100C400062E87FEF681B790B6A3171050CF080C098
:100C500047015801062E04C0B694A7949794879430
:100C60000A94D2F744245524320181E090E0A0E0B8
:100C7000B0E004C0880F991FAA1FBB1F6A95D2F766
:100C80000197A109B109E822F9220A231B23E114E3
:100C9000F1040105110529F061E0462E512C612C6B
:100CA000712C85017401E428F52806291729D8013B
:100CB000C7018F779070A070B07080349105A10546
:100CC000B10509F457C0D801C701CF96A11DB11DC8
:100CD00060E070E08030E0E09E07E0E0AE07E0E436
:100CE000BE0710F061E070E027E0B695A7959795F4
:100CF00087952A95D1F7AF77B07068C080E090E013
:100D0000A0E0B0E06FEF62C080E090E0A0E0B0E073
:100D100060E05CC0803891058CF7BC0161587F4F62
:100D2000D801C7018F779070A070B07080349105A2
:100D3000A105B105A1F08FE390E0A0E0B0E0E80EDE
:100D4000F91E0A1F1B1F17FD28C0D801C701CCCFF1
:100D500060E070E080E090E0A0E0B0E0CCCFE7FEA3
:100D6000F2CF80E490E0A0E0B0E0E80EF91E0A1FA8
:100D70001B1FE9CFE7FC18C080E090E060E0E616BA
:100D800060E0F60660E0060760E4160710F081E018
:100D900090E0BC01D801C701A7CF16950795F7943D
:100DA000E7946F5F7F4FD1CFD801C701805C9F4F21
:100DB000AF4FBF4F60E070E08030E0E09E07E0E0C2
:100DC000AE07E0E4BE0708F48FCF8CCF282F392F71
:100DD0009A2F9F77842F8078892B962F9795992724
:100DE00097958F77482F492B6695852F8078862B8E
:100DF000D794DD24D7948F77582F5D29CA01B90184
:100E00001F910F91FF90EF90DF90BF90AF909F9058
:100E10008F907F906F905F904F900895FC01DB0161
:100E2000208131819281492F4F7750E0991F992776
:100E3000991F8381682F660F692B881F8827881F59
:100E4000FD018183662309F049C021153105410563
:100E5000510509F470C082E89FEFFD0193838283FE
:100E6000220F331F441F551F220F331F441F551FCE
:100E7000220F331F441F551F220F331F441F551FBE
:100E8000220F331F441F551F220F331F441F551FAE
:100E9000220F331F441F551F83E08C932030F0E056
:100EA0003F07F0E04F07F0E45F0790F482E89FEF20
:100EB000220F331F441F551F0197203060E0360773
:100EC00060E0460760E4560798F3FD019383828350
:100ED000FD01248335834683578308956F3F71F165
:100EE000862F99278F579040FD019383828383E05B
:100EF0008C93220F331F441F551F220F331F441F93
:100F0000551F220F331F441F551F220F331F441F2D
:100F1000551F220F331F441F551F220F331F441F1D
:100F2000551F220F331F441F551F506424833583E0
:100F300046835783089582E08C93089521153105E7
:100F40004105510519F484E08C93089544FD02C0D5
:100F50001C92BECF81E08C93BBCFEF92FF920F9398
:100F60001F93CF93DF93FC01DB018081823050F02F
:100F70009C91923038F0843041F49430B1F081810A
:100F8000882381F461E070E04BC09430E9F1823055
:100F9000A1F09230A1F36181ED018981681791F090
:100FA000662381F36FEF7FEF3BC0EB018981682FF0
:100FB00077278181681B710933C0923059F560E051
:100FC00070E02EC022813381ED018A819B818217DE
:100FD000930734F3281739079CF0E480F5800681E5
:100FE0001781FD0124813581468157812E153F05EA
:100FF00040075107A8F2E216F30604071507F8F6B2
:10100000662309F0BFCFCECFFB018181882309F091
:10101000B9CFC8CFEB018981882309F0B3CFC2CF04
:10102000CB01E6E0CDB7DEB74FC097FB092E072610
:101030000AD077FD04D00CD006D000201AF47095A9
:1010400061957F4F0895F6F7909581959F4F08958C
:10105000AA1BBB1B51E107C0AA1FBB1FA617B707DE
:1010600010F0A61BB70B881F991F5A95A9F78095FA
:101070009095BC01CD0108952F923F924F925F92BF
:101080006F927F928F929F92AF92BF92CF92DF9298
:10109000EF92FF920F931F93CF93DF93CDB7DEB7FD
:1010A000CA1BDB0B0FB6F894DEBF0FBECDBF099491
:1010B0002A88398848885F846E847D848C849B84E8
:1010C000AA84B984C884DF80EE80FD800C811B81F6
:1010D000AA81B981CE0FD11D0FB6F894DEBF0FBE25
:0810E000CDBFED010895FFCF23
:1010E80049522052656D6F74654465636F6465721B
:1010F800004B657920436F64653A00FFFF000000EC
:06110800000000000000E1
:00000001FF
